{"abi":[{"type":"constructor","inputs":[],"stateMutability":"nonpayable"},{"type":"receive","stateMutability":"payable"},{"type":"function","name":"approve","inputs":[{"name":"to","type":"address","internalType":"address"},{"name":"tokenId","type":"uint256","internalType":"uint256"}],"outputs":[],"stateMutability":"nonpayable"},{"type":"function","name":"balanceOf","inputs":[{"name":"owner","type":"address","internalType":"address"}],"outputs":[{"name":"","type":"uint256","internalType":"uint256"}],"stateMutability":"view"},{"type":"function","name":"burn","inputs":[{"name":"tokenId","type":"uint256","internalType":"uint256"}],"outputs":[],"stateMutability":"nonpayable"},{"type":"function","name":"getApproved","inputs":[{"name":"tokenId","type":"uint256","internalType":"uint256"}],"outputs":[{"name":"","type":"address","internalType":"address"}],"stateMutability":"view"},{"type":"function","name":"isApprovedForAll","inputs":[{"name":"owner","type":"address","internalType":"address"},{"name":"operator","type":"address","internalType":"address"}],"outputs":[{"name":"","type":"bool","internalType":"bool"}],"stateMutability":"view"},{"type":"function","name":"mint","inputs":[],"outputs":[{"name":"","type":"uint256","internalType":"uint256"}],"stateMutability":"payable"},{"type":"function","name":"mintTo","inputs":[{"name":"to","type":"address","internalType":"address"}],"outputs":[{"name":"","type":"uint256","internalType":"uint256"}],"stateMutability":"nonpayable"},{"type":"function","name":"name","inputs":[],"outputs":[{"name":"","type":"string","internalType":"string"}],"stateMutability":"view"},{"type":"function","name":"owner","inputs":[],"outputs":[{"name":"","type":"address","internalType":"address"}],"stateMutability":"view"},{"type":"function","name":"ownerOf","inputs":[{"name":"tokenId","type":"uint256","internalType":"uint256"}],"outputs":[{"name":"","type":"address","internalType":"address"}],"stateMutability":"view"},{"type":"function","name":"renounceOwnership","inputs":[],"outputs":[],"stateMutability":"nonpayable"},{"type":"function","name":"safeTransferFrom","inputs":[{"name":"from","type":"address","internalType":"address"},{"name":"to","type":"address","internalType":"address"},{"name":"tokenId","type":"uint256","internalType":"uint256"}],"outputs":[],"stateMutability":"nonpayable"},{"type":"function","name":"safeTransferFrom","inputs":[{"name":"from","type":"address","internalType":"address"},{"name":"to","type":"address","internalType":"address"},{"name":"tokenId","type":"uint256","internalType":"uint256"},{"name":"data","type":"bytes","internalType":"bytes"}],"outputs":[],"stateMutability":"nonpayable"},{"type":"function","name":"setApprovalForAll","inputs":[{"name":"operator","type":"address","internalType":"address"},{"name":"approved","type":"bool","internalType":"bool"}],"outputs":[],"stateMutability":"nonpayable"},{"type":"function","name":"supportsInterface","inputs":[{"name":"interfaceId","type":"bytes4","internalType":"bytes4"}],"outputs":[{"name":"","type":"bool","internalType":"bool"}],"stateMutability":"view"},{"type":"function","name":"symbol","inputs":[],"outputs":[{"name":"","type":"string","internalType":"string"}],"stateMutability":"view"},{"type":"function","name":"tokenURI","inputs":[{"name":"tokenId","type":"uint256","internalType":"uint256"}],"outputs":[{"name":"","type":"string","internalType":"string"}],"stateMutability":"view"},{"type":"function","name":"totalSupply","inputs":[],"outputs":[{"name":"","type":"uint256","internalType":"uint256"}],"stateMutability":"view"},{"type":"function","name":"transferFrom","inputs":[{"name":"from","type":"address","internalType":"address"},{"name":"to","type":"address","internalType":"address"},{"name":"tokenId","type":"uint256","internalType":"uint256"}],"outputs":[],"stateMutability":"nonpayable"},{"type":"function","name":"transferOwnership","inputs":[{"name":"newOwner","type":"address","internalType":"address"}],"outputs":[],"stateMutability":"nonpayable"},{"type":"event","name":"Approval","inputs":[{"name":"owner","type":"address","indexed":true,"internalType":"address"},{"name":"approved","type":"address","indexed":true,"internalType":"address"},{"name":"tokenId","type":"uint256","indexed":true,"internalType":"uint256"}],"anonymous":false},{"type":"event","name":"ApprovalForAll","inputs":[{"name":"owner","type":"address","indexed":true,"internalType":"address"},{"name":"operator","type":"address","indexed":true,"internalType":"address"},{"name":"approved","type":"bool","indexed":false,"internalType":"bool"}],"anonymous":false},{"type":"event","name":"Minted","inputs":[{"name":"minter","type":"address","indexed":true,"internalType":"address"},{"name":"tokenId","type":"uint256","indexed":true,"internalType":"uint256"}],"anonymous":false},{"type":"event","name":"OwnershipTransferred","inputs":[{"name":"previousOwner","type":"address","indexed":true,"internalType":"address"},{"name":"newOwner","type":"address","indexed":true,"internalType":"address"}],"anonymous":false},{"type":"event","name":"Transfer","inputs":[{"name":"from","type":"address","indexed":true,"internalType":"address"},{"name":"to","type":"address","indexed":true,"internalType":"address"},{"name":"tokenId","type":"uint256","indexed":true,"internalType":"uint256"}],"anonymous":false},{"type":"error","name":"ERC721IncorrectOwner","inputs":[{"name":"sender","type":"address","internalType":"address"},{"name":"tokenId","type":"uint256","internalType":"uint256"},{"name":"owner","type":"address","internalType":"address"}]},{"type":"error","name":"ERC721InsufficientApproval","inputs":[{"name":"operator","type":"address","internalType":"address"},{"name":"tokenId","type":"uint256","internalType":"uint256"}]},{"type":"error","name":"ERC721InvalidApprover","inputs":[{"name":"approver","type":"address","internalType":"address"}]},{"type":"error","name":"ERC721InvalidOperator","inputs":[{"name":"operator","type":"address","internalType":"address"}]},{"type":"error","name":"ERC721InvalidOwner","inputs":[{"name":"owner","type":"address","internalType":"address"}]},{"type":"error","name":"ERC721InvalidReceiver","inputs":[{"name":"receiver","type":"address","internalType":"address"}]},{"type":"error","name":"ERC721InvalidSender","inputs":[{"name":"sender","type":"address","internalType":"address"}]},{"type":"error","name":"ERC721NonexistentToken","inputs":[{"name":"tokenId","type":"uint256","internalType":"uint256"}]},{"type":"error","name":"OwnableInvalidOwner","inputs":[{"name":"owner","type":"address","internalType":"address"}]},{"type":"error","name":"OwnableUnauthorizedAccount","inputs":[{"name":"account","type":"address","internalType":"address"}]},{"type":"error","name":"ReentrancyGuardReentrantCall","inputs":[]}],"bytecode":{"object":"0x60806040526001600955348015610014575f5ffd5b50336040518060400160405280600c81526020017f47656f4361737465724e465400000000000000000000000000000000000000008152506040518060400160405280600381526020017f47434e0000000000000000000000000000000000000000000000000000000000815250815f90816100909190610499565b5080600190816100a09190610499565b5050505f73ffffffffffffffffffffffffffffffffffffffff168173ffffffffffffffffffffffffffffffffffffffff1603610113575f6040517f1e4fbdf700000000000000000000000000000000000000000000000000000000815260040161010a91906105a7565b60405180910390fd5b6101228161019960201b60201c565b506001600781905550600a5f9054906101000a900460ff161561017a576040517f08c379a00000000000000000000000000000000000000000000000000000000081526004016101719061061a565b60405180910390fd5b6001600a5f6101000a81548160ff021916908315150217905550610638565b5f60065f9054906101000a900473ffffffffffffffffffffffffffffffffffffffff1690508160065f6101000a81548173ffffffffffffffffffffffffffffffffffffffff021916908373ffffffffffffffffffffffffffffffffffffffff1602179055508173ffffffffffffffffffffffffffffffffffffffff168173ffffffffffffffffffffffffffffffffffffffff167f8be0079c531659141344cd1fd0a4f28419497f9722a3daafe3b4186f6b6457e060405160405180910390a35050565b5f81519050919050565b7f4e487b71000000000000000000000000000000000000000000000000000000005f52604160045260245ffd5b7f4e487b71000000000000000000000000000000000000000000000000000000005f52602260045260245ffd5b5f60028204905060018216806102d757607f821691505b6020821081036102ea576102e9610293565b5b50919050565b5f819050815f5260205f209050919050565b5f6020601f8301049050919050565b5f82821b905092915050565b5f6008830261034c7fffffffffffffffffffffffffffffffffffffffffffffffffffffffffffffffff82610311565b6103568683610311565b95508019841693508086168417925050509392505050565b5f819050919050565b5f819050919050565b5f61039a6103956103908461036e565b610377565b61036e565b9050919050565b5f819050919050565b6103b383610380565b6103c76103bf826103a1565b84845461031d565b825550505050565b5f5f905090565b6103de6103cf565b6103e98184846103aa565b505050565b5b8181101561040c576104015f826103d6565b6001810190506103ef565b5050565b601f82111561045157610422816102f0565b61042b84610302565b8101602085101561043a578190505b61044e61044685610302565b8301826103ee565b50505b505050565b5f82821c905092915050565b5f6104715f1984600802610456565b1980831691505092915050565b5f6104898383610462565b9150826002028217905092915050565b6104a28261025c565b67ffffffffffffffff8111156104bb576104ba610266565b5b6104c582546102c0565b6104d0828285610410565b5f60209050601f831160018114610501575f84156104ef578287015190505b6104f9858261047e565b865550610560565b601f19841661050f866102f0565b5f5b8281101561053657848901518255600182019150602085019450602081019050610511565b86831015610553578489015161054f601f891682610462565b8355505b6001600288020188555050505b505050505050565b5f73ffffffffffffffffffffffffffffffffffffffff82169050919050565b5f61059182610568565b9050919050565b6105a181610587565b82525050565b5f6020820190506105ba5f830184610598565b92915050565b5f82825260208201905092915050565b7f416c726561647920696e697469616c697a6564000000000000000000000000005f82015250565b5f6106046013836105c0565b915061060f826105d0565b602082019050919050565b5f6020820190508181035f830152610631816105f8565b9050919050565b612e03806106455f395ff3fe608060405260043610610122575f3560e01c806370a082311161009f578063a22cb46511610063578063a22cb465146103d5578063b88d4fde146103fd578063c87b56dd14610425578063e985e9c514610461578063f2fde38b1461049d57610129565b806370a08231146102f3578063715018a61461032f578063755edd17146103455780638da5cb5b1461038157806395d89b41146103ab57610129565b806318160ddd116100e657806318160ddd1461021557806323b872dd1461023f57806342842e0e1461026757806342966c681461028f5780636352211e146102b757610129565b806301ffc9a71461012d57806306fdde0314610169578063081812fc14610193578063095ea7b3146101cf5780631249c58b146101f757610129565b3661012957005b5f5ffd5b348015610138575f5ffd5b50610153600480360381019061014e91906120a2565b6104c5565b60405161016091906120e7565b60405180910390f35b348015610174575f5ffd5b5061017d6105a6565b60405161018a9190612170565b60405180910390f35b34801561019e575f5ffd5b506101b960048036038101906101b491906121c3565b610635565b6040516101c6919061222d565b60405180910390f35b3480156101da575f5ffd5b506101f560048036038101906101f09190612270565b610650565b005b6101ff610666565b60405161020c91906122bd565b60405180910390f35b348015610220575f5ffd5b506102296108db565b60405161023691906122bd565b60405180910390f35b34801561024a575f5ffd5b50610265600480360381019061026091906122d6565b6108e7565b005b348015610272575f5ffd5b5061028d600480360381019061028891906122d6565b6109e6565b005b34801561029a575f5ffd5b506102b560048036038101906102b091906121c3565b610a05565b005b3480156102c2575f5ffd5b506102dd60048036038101906102d891906121c3565b610b25565b6040516102ea919061222d565b60405180910390f35b3480156102fe575f5ffd5b5061031960048036038101906103149190612326565b610b36565b60405161032691906122bd565b60405180910390f35b34801561033a575f5ffd5b50610343610bec565b005b348015610350575f5ffd5b5061036b60048036038101906103669190612326565b610bff565b60405161037891906122bd565b60405180910390f35b34801561038c575f5ffd5b50610395610cb2565b6040516103a2919061222d565b60405180910390f35b3480156103b6575f5ffd5b506103bf610cda565b6040516103cc9190612170565b60405180910390f35b3480156103e0575f5ffd5b506103fb60048036038101906103f6919061237b565b610d6a565b005b348015610408575f5ffd5b50610423600480360381019061041e91906124e5565b610d80565b005b348015610430575f5ffd5b5061044b600480360381019061044691906121c3565b610da5565b6040516104589190612170565b60405180910390f35b34801561046c575f5ffd5b5061048760048036038101906104829190612565565b610e97565b60405161049491906120e7565b60405180910390f35b3480156104a8575f5ffd5b506104c360048036038101906104be9190612326565b610f25565b005b5f7f80ac58cd000000000000000000000000000000000000000000000000000000007bffffffffffffffffffffffffffffffffffffffffffffffffffffffff1916827bffffffffffffffffffffffffffffffffffffffffffffffffffffffff1916148061058f57507f5b5e139f000000000000000000000000000000000000000000000000000000007bffffffffffffffffffffffffffffffffffffffffffffffffffffffff1916827bffffffffffffffffffffffffffffffffffffffffffffffffffffffff1916145b8061059f575061059e82610fa9565b5b9050919050565b60605f80546105b4906125d0565b80601f01602080910402602001604051908101604052809291908181526020018280546105e0906125d0565b801561062b5780601f106106025761010080835404028352916020019161062b565b820191905f5260205f20905b81548152906001019060200180831161060e57829003601f168201915b5050505050905090565b5f61063f82611012565b5061064982611098565b9050919050565b610662828261065d6110d1565b6110d8565b5050565b5f61066f6110ea565b6603328b944c40003410156106b9576040517f08c379a00000000000000000000000000000000000000000000000000000000081526004016106b090612670565b60405180910390fd5b5f600954905060095f8154809291906106d1906126bb565b9190505550600881908060018154018082558091505060019003905f5260205f20015f90919091909150556107063382611130565b5f61070f610cb2565b73ffffffffffffffffffffffffffffffffffffffff166603328b944c40006040516107399061272f565b5f6040518083038185875af1925050503d805f8114610773576040519150601f19603f3d011682016040523d82523d5f602084013e610778565b606091505b50509050806107bc576040517f08c379a00000000000000000000000000000000000000000000000000000000081526004016107b39061278d565b60405180910390fd5b813373ffffffffffffffffffffffffffffffffffffffff167f30385c845b448a36257a6a1716e6ad2e1bc2cbe333cde1e69fe849ad6511adfe60405160405180910390a36603328b944c40003411156108cb575f3373ffffffffffffffffffffffffffffffffffffffff166603328b944c40003461083a91906127ab565b6040516108469061272f565b5f6040518083038185875af1925050503d805f8114610880576040519150601f19603f3d011682016040523d82523d5f602084013e610885565b606091505b50509050806108c9576040517f08c379a00000000000000000000000000000000000000000000000000000000081526004016108c090612828565b60405180910390fd5b505b81925050506108d861114d565b90565b5f600880549050905090565b5f73ffffffffffffffffffffffffffffffffffffffff168273ffffffffffffffffffffffffffffffffffffffff1603610957575f6040517f64a0ae9200000000000000000000000000000000000000000000000000000000815260040161094e919061222d565b60405180910390fd5b5f61096a83836109656110d1565b611157565b90508373ffffffffffffffffffffffffffffffffffffffff168173ffffffffffffffffffffffffffffffffffffffff16146109e0578382826040517f64283d7b0000000000000000000000000000000000000000000000000000000081526004016109d793929190612846565b60405180910390fd5b50505050565b610a0083838360405180602001604052805f815250610d80565b505050565b610a0d6110ea565b610a173382611362565b610a56576040517f08c379a0000000000000000000000000000000000000000000000000000000008152600401610a4d906128c5565b60405180910390fd5b610a5f816113f6565b5f5f90505b600880549050811015610b19578160088281548110610a8657610a856128e3565b5b905f5260205f20015403610b0c5760086001600880549050610aa891906127ab565b81548110610ab957610ab86128e3565b5b905f5260205f20015460088281548110610ad657610ad56128e3565b5b905f5260205f2001819055506008805480610af457610af3612910565b5b600190038181905f5260205f20015f90559055610b19565b8080600101915050610a64565b50610b2261114d565b50565b5f610b2f82611012565b9050919050565b5f5f73ffffffffffffffffffffffffffffffffffffffff168273ffffffffffffffffffffffffffffffffffffffff1603610ba7575f6040517f89c62b64000000000000000000000000000000000000000000000000000000008152600401610b9e919061222d565b60405180910390fd5b60035f8373ffffffffffffffffffffffffffffffffffffffff1673ffffffffffffffffffffffffffffffffffffffff1681526020019081526020015f20549050919050565b610bf4611478565b610bfd5f6114ff565b565b5f610c08611478565b610c106110ea565b5f600954905060095f815480929190610c28906126bb565b9190505550600881908060018154018082558091505060019003905f5260205f20015f9091909190915055610c5d8382611130565b808373ffffffffffffffffffffffffffffffffffffffff167f30385c845b448a36257a6a1716e6ad2e1bc2cbe333cde1e69fe849ad6511adfe60405160405180910390a380915050610cad61114d565b919050565b5f60065f9054906101000a900473ffffffffffffffffffffffffffffffffffffffff16905090565b606060018054610ce9906125d0565b80601f0160208091040260200160405190810160405280929190818152602001828054610d15906125d0565b8015610d605780601f10610d3757610100808354040283529160200191610d60565b820191905f5260205f20905b815481529060010190602001808311610d4357829003601f168201915b5050505050905090565b610d7c610d756110d1565b83836115c2565b5050565b610d8b8484846108e7565b610d9f610d966110d1565b8585858561172b565b50505050565b6060610db0826118d7565b610def576040517f08c379a0000000000000000000000000000000000000000000000000000000008152600401610de6906129ad565b60405180910390fd5b5f8211610e31576040517f08c379a0000000000000000000000000000000000000000000000000000000008152600401610e2890612a15565b60405180910390fd5b610e3a82611990565b6040518060400160405280601e81526020017f68747470733a2f2f796f7572646f6d61696e2e636f6d2f6e66742e706e670000815250604051602001610e81929190612c05565b6040516020818303038152906040529050919050565b5f60055f8473ffffffffffffffffffffffffffffffffffffffff1673ffffffffffffffffffffffffffffffffffffffff1681526020019081526020015f205f8373ffffffffffffffffffffffffffffffffffffffff1673ffffffffffffffffffffffffffffffffffffffff1681526020019081526020015f205f9054906101000a900460ff16905092915050565b610f2d611478565b5f73ffffffffffffffffffffffffffffffffffffffff168173ffffffffffffffffffffffffffffffffffffffff1603610f9d575f6040517f1e4fbdf7000000000000000000000000000000000000000000000000000000008152600401610f94919061222d565b60405180910390fd5b610fa6816114ff565b50565b5f7f01ffc9a7000000000000000000000000000000000000000000000000000000007bffffffffffffffffffffffffffffffffffffffffffffffffffffffff1916827bffffffffffffffffffffffffffffffffffffffffffffffffffffffff1916149050919050565b5f5f61101d83611a5a565b90505f73ffffffffffffffffffffffffffffffffffffffff168173ffffffffffffffffffffffffffffffffffffffff160361108f57826040517f7e27328900000000000000000000000000000000000000000000000000000000815260040161108691906122bd565b60405180910390fd5b80915050919050565b5f60045f8381526020019081526020015f205f9054906101000a900473ffffffffffffffffffffffffffffffffffffffff169050919050565b5f33905090565b6110e58383836001611a93565b505050565b600260075403611126576040517f3ee5aeb500000000000000000000000000000000000000000000000000000000815260040160405180910390fd5b6002600781905550565b611149828260405180602001604052805f815250611c52565b5050565b6001600781905550565b5f5f61116284611a5a565b90505f73ffffffffffffffffffffffffffffffffffffffff168373ffffffffffffffffffffffffffffffffffffffff16146111a3576111a2818486611c75565b5b5f73ffffffffffffffffffffffffffffffffffffffff168173ffffffffffffffffffffffffffffffffffffffff161461122e576111e25f855f5f611a93565b600160035f8373ffffffffffffffffffffffffffffffffffffffff1673ffffffffffffffffffffffffffffffffffffffff1681526020019081526020015f205f82825403925050819055505b5f73ffffffffffffffffffffffffffffffffffffffff168573ffffffffffffffffffffffffffffffffffffffff16146112ad57600160035f8773ffffffffffffffffffffffffffffffffffffffff1673ffffffffffffffffffffffffffffffffffffffff1681526020019081526020015f205f82825401925050819055505b8460025f8681526020019081526020015f205f6101000a81548173ffffffffffffffffffffffffffffffffffffffff021916908373ffffffffffffffffffffffffffffffffffffffff160217905550838573ffffffffffffffffffffffffffffffffffffffff168273ffffffffffffffffffffffffffffffffffffffff167fddf252ad1be2c89b69c2b068fc378daa952ba7f163c4a11628f55a4df523b3ef60405160405180910390a4809150509392505050565b5f5f61136d83610b25565b90508073ffffffffffffffffffffffffffffffffffffffff168473ffffffffffffffffffffffffffffffffffffffff1614806113af57506113ae8185610e97565b5b806113ed57508373ffffffffffffffffffffffffffffffffffffffff166113d584610635565b73ffffffffffffffffffffffffffffffffffffffff16145b91505092915050565b5f6114025f835f611157565b90505f73ffffffffffffffffffffffffffffffffffffffff168173ffffffffffffffffffffffffffffffffffffffff160361147457816040517f7e27328900000000000000000000000000000000000000000000000000000000815260040161146b91906122bd565b60405180910390fd5b5050565b6114806110d1565b73ffffffffffffffffffffffffffffffffffffffff1661149e610cb2565b73ffffffffffffffffffffffffffffffffffffffff16146114fd576114c16110d1565b6040517f118cdaa70000000000000000000000000000000000000000000000000000000081526004016114f4919061222d565b60405180910390fd5b565b5f60065f9054906101000a900473ffffffffffffffffffffffffffffffffffffffff1690508160065f6101000a81548173ffffffffffffffffffffffffffffffffffffffff021916908373ffffffffffffffffffffffffffffffffffffffff1602179055508173ffffffffffffffffffffffffffffffffffffffff168173ffffffffffffffffffffffffffffffffffffffff167f8be0079c531659141344cd1fd0a4f28419497f9722a3daafe3b4186f6b6457e060405160405180910390a35050565b5f73ffffffffffffffffffffffffffffffffffffffff168273ffffffffffffffffffffffffffffffffffffffff160361163257816040517f5b08ba18000000000000000000000000000000000000000000000000000000008152600401611629919061222d565b60405180910390fd5b8060055f8573ffffffffffffffffffffffffffffffffffffffff1673ffffffffffffffffffffffffffffffffffffffff1681526020019081526020015f205f8473ffffffffffffffffffffffffffffffffffffffff1673ffffffffffffffffffffffffffffffffffffffff1681526020019081526020015f205f6101000a81548160ff0219169083151502179055508173ffffffffffffffffffffffffffffffffffffffff168373ffffffffffffffffffffffffffffffffffffffff167f17307eab39ab6107e8899845ad3d59bd9653f200f220920489ca2b5937696c318360405161171e91906120e7565b60405180910390a3505050565b5f8373ffffffffffffffffffffffffffffffffffffffff163b11156118d0578273ffffffffffffffffffffffffffffffffffffffff1663150b7a02868685856040518563ffffffff1660e01b81526004016117899493929190612cb1565b6020604051808303815f875af19250505080156117c457506040513d601f19601f820116820180604052508101906117c19190612d0f565b60015b611845573d805f81146117f2576040519150601f19603f3d011682016040523d82523d5f602084013e6117f7565b606091505b505f81510361183d57836040517f64a0ae92000000000000000000000000000000000000000000000000000000008152600401611834919061222d565b60405180910390fd5b805181602001fd5b63150b7a0260e01b7bffffffffffffffffffffffffffffffffffffffffffffffffffffffff1916817bffffffffffffffffffffffffffffffffffffffffffffffffffffffff1916146118ce57836040517f64a0ae920000000000000000000000000000000000000000000000000000000081526004016118c5919061222d565b60405180910390fd5b505b5050505050565b5f3073ffffffffffffffffffffffffffffffffffffffff16636352211e836040518263ffffffff1660e01b815260040161191191906122bd565b602060405180830381865afa92505050801561194b57506040513d601f19601f820116820180604052508101906119489190612d4e565b60015b611957575f905061198b565b5f73ffffffffffffffffffffffffffffffffffffffff168173ffffffffffffffffffffffffffffffffffffffff1614159150505b919050565b60605f600161199e84611d38565b0190505f8167ffffffffffffffff8111156119bc576119bb6123c1565b5b6040519080825280601f01601f1916602001820160405280156119ee5781602001600182028036833780820191505090505b5090505f82602001820190505b600115611a4f578080600190039150507f3031323334353637383961626364656600000000000000000000000000000000600a86061a8153600a8581611a4457611a43612d79565b5b0494505f85036119fb575b819350505050919050565b5f60025f8381526020019081526020015f205f9054906101000a900473ffffffffffffffffffffffffffffffffffffffff169050919050565b8080611acb57505f73ffffffffffffffffffffffffffffffffffffffff168273ffffffffffffffffffffffffffffffffffffffff1614155b15611bfd575f611ada84611012565b90505f73ffffffffffffffffffffffffffffffffffffffff168373ffffffffffffffffffffffffffffffffffffffff1614158015611b4457508273ffffffffffffffffffffffffffffffffffffffff168173ffffffffffffffffffffffffffffffffffffffff1614155b8015611b575750611b558184610e97565b155b15611b9957826040517fa9fbf51f000000000000000000000000000000000000000000000000000000008152600401611b90919061222d565b60405180910390fd5b8115611bfb57838573ffffffffffffffffffffffffffffffffffffffff168273ffffffffffffffffffffffffffffffffffffffff167f8c5be1e5ebec7d5bd14f71427d1e84f3dd0314c0f7b2291e5b200ac8c7c3b92560405160405180910390a45b505b8360045f8581526020019081526020015f205f6101000a81548173ffffffffffffffffffffffffffffffffffffffff021916908373ffffffffffffffffffffffffffffffffffffffff16021790555050505050565b611c5c8383611e89565b611c70611c676110d1565b5f85858561172b565b505050565b611c80838383611f7c565b611d33575f73ffffffffffffffffffffffffffffffffffffffff168373ffffffffffffffffffffffffffffffffffffffff1603611cf457806040517f7e273289000000000000000000000000000000000000000000000000000000008152600401611ceb91906122bd565b60405180910390fd5b81816040517f177e802f000000000000000000000000000000000000000000000000000000008152600401611d2a929190612da6565b60405180910390fd5b505050565b5f5f5f90507a184f03e93ff9f4daa797ed6e38ed64bf6a1f0100000000000000008310611d94577a184f03e93ff9f4daa797ed6e38ed64bf6a1f0100000000000000008381611d8a57611d89612d79565b5b0492506040810190505b6d04ee2d6d415b85acef81000000008310611dd1576d04ee2d6d415b85acef81000000008381611dc757611dc6612d79565b5b0492506020810190505b662386f26fc100008310611e0057662386f26fc100008381611df657611df5612d79565b5b0492506010810190505b6305f5e1008310611e29576305f5e1008381611e1f57611e1e612d79565b5b0492506008810190505b6127108310611e4e576127108381611e4457611e43612d79565b5b0492506004810190505b60648310611e715760648381611e6757611e66612d79565b5b0492506002810190505b600a8310611e80576001810190505b80915050919050565b5f73ffffffffffffffffffffffffffffffffffffffff168273ffffffffffffffffffffffffffffffffffffffff1603611ef9575f6040517f64a0ae92000000000000000000000000000000000000000000000000000000008152600401611ef0919061222d565b60405180910390fd5b5f611f0583835f611157565b90505f73ffffffffffffffffffffffffffffffffffffffff168173ffffffffffffffffffffffffffffffffffffffff1614611f77575f6040517f73c6ac6e000000000000000000000000000000000000000000000000000000008152600401611f6e919061222d565b60405180910390fd5b505050565b5f5f73ffffffffffffffffffffffffffffffffffffffff168373ffffffffffffffffffffffffffffffffffffffff161415801561203357508273ffffffffffffffffffffffffffffffffffffffff168473ffffffffffffffffffffffffffffffffffffffff161480611ff45750611ff38484610e97565b5b8061203257508273ffffffffffffffffffffffffffffffffffffffff1661201a83611098565b73ffffffffffffffffffffffffffffffffffffffff16145b5b90509392505050565b5f604051905090565b5f5ffd5b5f5ffd5b5f7fffffffff0000000000000000000000000000000000000000000000000000000082169050919050565b6120818161204d565b811461208b575f5ffd5b50565b5f8135905061209c81612078565b92915050565b5f602082840312156120b7576120b6612045565b5b5f6120c48482850161208e565b91505092915050565b5f8115159050919050565b6120e1816120cd565b82525050565b5f6020820190506120fa5f8301846120d8565b92915050565b5f81519050919050565b5f82825260208201905092915050565b8281835e5f83830152505050565b5f601f19601f8301169050919050565b5f61214282612100565b61214c818561210a565b935061215c81856020860161211a565b61216581612128565b840191505092915050565b5f6020820190508181035f8301526121888184612138565b905092915050565b5f819050919050565b6121a281612190565b81146121ac575f5ffd5b50565b5f813590506121bd81612199565b92915050565b5f602082840312156121d8576121d7612045565b5b5f6121e5848285016121af565b91505092915050565b5f73ffffffffffffffffffffffffffffffffffffffff82169050919050565b5f612217826121ee565b9050919050565b6122278161220d565b82525050565b5f6020820190506122405f83018461221e565b92915050565b61224f8161220d565b8114612259575f5ffd5b50565b5f8135905061226a81612246565b92915050565b5f5f6040838503121561228657612285612045565b5b5f6122938582860161225c565b92505060206122a4858286016121af565b9150509250929050565b6122b781612190565b82525050565b5f6020820190506122d05f8301846122ae565b92915050565b5f5f5f606084860312156122ed576122ec612045565b5b5f6122fa8682870161225c565b935050602061230b8682870161225c565b925050604061231c868287016121af565b9150509250925092565b5f6020828403121561233b5761233a612045565b5b5f6123488482850161225c565b91505092915050565b61235a816120cd565b8114612364575f5ffd5b50565b5f8135905061237581612351565b92915050565b5f5f6040838503121561239157612390612045565b5b5f61239e8582860161225c565b92505060206123af85828601612367565b9150509250929050565b5f5ffd5b5f5ffd5b7f4e487b71000000000000000000000000000000000000000000000000000000005f52604160045260245ffd5b6123f782612128565b810181811067ffffffffffffffff82111715612416576124156123c1565b5b80604052505050565b5f61242861203c565b905061243482826123ee565b919050565b5f67ffffffffffffffff821115612453576124526123c1565b5b61245c82612128565b9050602081019050919050565b828183375f83830152505050565b5f61248961248484612439565b61241f565b9050828152602081018484840111156124a5576124a46123bd565b5b6124b0848285612469565b509392505050565b5f82601f8301126124cc576124cb6123b9565b5b81356124dc848260208601612477565b91505092915050565b5f5f5f5f608085870312156124fd576124fc612045565b5b5f61250a8782880161225c565b945050602061251b8782880161225c565b935050604061252c878288016121af565b925050606085013567ffffffffffffffff81111561254d5761254c612049565b5b612559878288016124b8565b91505092959194509250565b5f5f6040838503121561257b5761257a612045565b5b5f6125888582860161225c565b92505060206125998582860161225c565b9150509250929050565b7f4e487b71000000000000000000000000000000000000000000000000000000005f52602260045260245ffd5b5f60028204905060018216806125e757607f821691505b6020821081036125fa576125f96125a3565b5b50919050565b7f496e73756666696369656e74204554482073656e7420666f72206d696e74696e5f8201527f6700000000000000000000000000000000000000000000000000000000000000602082015250565b5f61265a60218361210a565b915061266582612600565b604082019050919050565b5f6020820190508181035f8301526126878161264e565b9050919050565b7f4e487b71000000000000000000000000000000000000000000000000000000005f52601160045260245ffd5b5f6126c582612190565b91507fffffffffffffffffffffffffffffffffffffffffffffffffffffffffffffffff82036126f7576126f661268e565b5b600182019050919050565b5f81905092915050565b50565b5f61271a5f83612702565b91506127258261270c565b5f82019050919050565b5f6127398261270f565b9150819050919050565b7f455448207472616e7366657220746f206f776e6572206661696c6564000000005f82015250565b5f612777601c8361210a565b915061278282612743565b602082019050919050565b5f6020820190508181035f8301526127a48161276b565b9050919050565b5f6127b582612190565b91506127c083612190565b92508282039050818111156127d8576127d761268e565b5b92915050565b7f526566756e64206661696c6564000000000000000000000000000000000000005f82015250565b5f612812600d8361210a565b915061281d826127de565b602082019050919050565b5f6020820190508181035f83015261283f81612806565b9050919050565b5f6060820190506128595f83018661221e565b61286660208301856122ae565b612873604083018461221e565b949350505050565b7f4e6f7420617070726f766564206f72206f776e657200000000000000000000005f82015250565b5f6128af60158361210a565b91506128ba8261287b565b602082019050919050565b5f6020820190508181035f8301526128dc816128a3565b9050919050565b7f4e487b71000000000000000000000000000000000000000000000000000000005f52603260045260245ffd5b7f4e487b71000000000000000000000000000000000000000000000000000000005f52603160045260245ffd5b7f4552433732314d657461646174613a2055524920717565727920666f72206e6f5f8201527f6e6578697374656e7420746f6b656e0000000000000000000000000000000000602082015250565b5f612997602f8361210a565b91506129a28261293d565b604082019050919050565b5f6020820190508181035f8301526129c48161298b565b9050919050565b7f546f6b656e204944206d75737420626520706f736974697665000000000000005f82015250565b5f6129ff60198361210a565b9150612a0a826129cb565b602082019050919050565b5f6020820190508181035f830152612a2c816129f3565b9050919050565b5f81905092915050565b7f646174613a6170706c69636174696f6e2f6a736f6e3b757466382c00000000005f82015250565b5f612a71601b83612a33565b9150612a7c82612a3d565b601b82019050919050565b7f7b226e616d65223a2247656f4361737465724e465420230000000000000000005f82015250565b5f612abb601783612a33565b9150612ac682612a87565b601782019050919050565b5f612adb82612100565b612ae58185612a33565b9350612af581856020860161211a565b80840191505092915050565b7f222c226465736372697074696f6e223a2247656f436173746572204e465420775f8201527f6974682073746174696320504e4720696d6167652e222c000000000000000000602082015250565b5f612b5b603783612a33565b9150612b6682612b01565b603782019050919050565b7f22696d616765223a2200000000000000000000000000000000000000000000005f82015250565b5f612ba5600983612a33565b9150612bb082612b71565b600982019050919050565b7f227d0000000000000000000000000000000000000000000000000000000000005f82015250565b5f612bef600283612a33565b9150612bfa82612bbb565b600282019050919050565b5f612c0f82612a65565b9150612c1a82612aaf565b9150612c268285612ad1565b9150612c3182612b4f565b9150612c3c82612b99565b9150612c488284612ad1565b9150612c5382612be3565b91508190509392505050565b5f81519050919050565b5f82825260208201905092915050565b5f612c8382612c5f565b612c8d8185612c69565b9350612c9d81856020860161211a565b612ca681612128565b840191505092915050565b5f608082019050612cc45f83018761221e565b612cd1602083018661221e565b612cde60408301856122ae565b8181036060830152612cf08184612c79565b905095945050505050565b5f81519050612d0981612078565b92915050565b5f60208284031215612d2457612d23612045565b5b5f612d3184828501612cfb565b91505092915050565b5f81519050612d4881612246565b92915050565b5f60208284031215612d6357612d62612045565b5b5f612d7084828501612d3a565b91505092915050565b7f4e487b71000000000000000000000000000000000000000000000000000000005f52601260045260245ffd5b5f604082019050612db95f83018561221e565b612dc660208301846122ae565b939250505056fea26469706673582212208eff60e7e79e7d9af093598daebdface48de1f9be4e9a3a7efbd9b670af6e28764736f6c634300081e0033","linkReferences":{}},"methodIdentifiers":{"approve(address,uint256)":"095ea7b3","balanceOf(address)":"70a08231","burn(uint256)":"42966c68","getApproved(uint256)":"081812fc","isApprovedForAll(address,address)":"e985e9c5","mint()":"1249c58b","mintTo(address)":"755edd17","name()":"06fdde03","owner()":"8da5cb5b","ownerOf(uint256)":"6352211e","renounceOwnership()":"715018a6","safeTransferFrom(address,address,uint256)":"42842e0e","safeTransferFrom(address,address,uint256,bytes)":"b88d4fde","setApprovalForAll(address,bool)":"a22cb465","supportsInterface(bytes4)":"01ffc9a7","symbol()":"95d89b41","tokenURI(uint256)":"c87b56dd","totalSupply()":"18160ddd","transferFrom(address,address,uint256)":"23b872dd","transferOwnership(address)":"f2fde38b"},"id":16}